{
  "contractName": "Background",
  "abi": [
    {
      "constant": false,
      "inputs": [
        {
          "name": "value",
          "type": "uint256"
        }
      ],
      "name": "storeValue",
      "outputs": [],
      "payable": false,
      "stateMutability": "nonpayable",
      "type": "function",
      "signature": "0x7221a26a"
    },
    {
      "constant": true,
      "inputs": [
        {
          "name": "initial",
          "type": "uint256"
        }
      ],
      "name": "getValue",
      "outputs": [
        {
          "name": "",
          "type": "uint256"
        }
      ],
      "payable": false,
      "stateMutability": "view",
      "type": "function",
      "signature": "0x0ff4c916"
    },
    {
      "constant": true,
      "inputs": [],
      "name": "getNumberOfValues",
      "outputs": [
        {
          "name": "",
          "type": "uint256"
        }
      ],
      "payable": false,
      "stateMutability": "view",
      "type": "function",
      "signature": "0x4312aee1"
    }
  ],
  "bytecode": "0x608060405234801561001057600080fd5b5061019a806100206000396000f3fe608060405260043610610057576000357c0100000000000000000000000000000000000000000000000000000000900463ffffffff1680630ff4c9161461005c5780634312aee1146100ab5780637221a26a146100d6575b600080fd5b34801561006857600080fd5b506100956004803603602081101561007f57600080fd5b8101908080359060200190929190505050610111565b6040518082815260200191505060405180910390f35b3480156100b757600080fd5b506100c0610133565b6040518082815260200191505060405180910390f35b3480156100e257600080fd5b5061010f600480360360208110156100f957600080fd5b810190808035906020019092919050505061013f565b005b6000808281548110151561012157fe5b90600052602060002001549050919050565b60008080549050905090565b60008190806001815401808255809150509060018203906000526020600020016000909192909190915055505056fea165627a7a72305820a4bc7f23cf4dd9caf7069b80ecfa9b82ece388ec0201aa66ae5fe6abd53f67660029",
  "source": "pragma solidity >=0.5.0;\n\ncontract Background {\n    uint[] private values;\n\n    function storeValue(uint value) public {\n        values.push(value);\n    }\n\n    function getValue(uint initial) public view returns(uint) {\n        return values[initial];\n    }\n\n    function getNumberOfValues() public view returns(uint) {\n        return values.length;\n    }\n}",
  "sourcePath": "/Users/alexroan/Documents/Projects/Blockchain/DApps/truffle-tests/contracts/Background.sol",
  "compiler": {
    "name": "solc",
    "version": "0.5.0+commit.1d4f565a.Emscripten.clang"
  },
  "schemaVersion": "3.0.2",
  "updatedAt": "2020-03-21T16:20:50.769Z",
  "devdoc": {
    "methods": {}
  },
  "userdoc": {
    "methods": {}
  }
}