{
  "contractName": "EntryPoint",
  "abi": [
    {
      "constant": true,
      "inputs": [],
      "name": "background",
      "outputs": [
        {
          "name": "",
          "type": "address"
        }
      ],
      "payable": false,
      "stateMutability": "view",
      "type": "function",
      "signature": "0xa895ed21"
    },
    {
      "inputs": [
        {
          "name": "_background",
          "type": "address"
        }
      ],
      "payable": false,
      "stateMutability": "nonpayable",
      "type": "constructor",
      "signature": "constructor"
    },
    {
      "constant": false,
      "inputs": [
        {
          "name": "first",
          "type": "uint256"
        },
        {
          "name": "second",
          "type": "uint256"
        }
      ],
      "name": "storeTwoValues",
      "outputs": [],
      "payable": false,
      "stateMutability": "nonpayable",
      "type": "function",
      "signature": "0xe812d6a5"
    },
    {
      "constant": true,
      "inputs": [],
      "name": "getNumberOfValues",
      "outputs": [
        {
          "name": "",
          "type": "uint256"
        }
      ],
      "payable": false,
      "stateMutability": "view",
      "type": "function",
      "signature": "0x4312aee1"
    }
  ],
  "bytecode": "0x608060405234801561001057600080fd5b5060405160208061041e8339810180604052602081101561003057600080fd5b8101908080519060200190929190505050806000806101000a81548173ffffffffffffffffffffffffffffffffffffffff021916908373ffffffffffffffffffffffffffffffffffffffff1602179055505061038d806100916000396000f3fe608060405260043610610057576000357c0100000000000000000000000000000000000000000000000000000000900463ffffffff1680634312aee11461005c578063a895ed2114610087578063e812d6a5146100de575b600080fd5b34801561006857600080fd5b50610071610123565b6040518082815260200191505060405180910390f35b34801561009357600080fd5b5061009c6101e8565b604051808273ffffffffffffffffffffffffffffffffffffffff1673ffffffffffffffffffffffffffffffffffffffff16815260200191505060405180910390f35b3480156100ea57600080fd5b506101216004803603604081101561010157600080fd5b81019080803590602001909291908035906020019092919050505061020d565b005b60008060009054906101000a900473ffffffffffffffffffffffffffffffffffffffff1673ffffffffffffffffffffffffffffffffffffffff16634312aee16040518163ffffffff167c010000000000000000000000000000000000000000000000000000000002815260040160206040518083038186803b1580156101a857600080fd5b505afa1580156101bc573d6000803e3d6000fd5b505050506040513d60208110156101d257600080fd5b8101908080519060200190929190505050905090565b6000809054906101000a900473ffffffffffffffffffffffffffffffffffffffff1681565b6000809054906101000a900473ffffffffffffffffffffffffffffffffffffffff1673ffffffffffffffffffffffffffffffffffffffff16637221a26a836040518263ffffffff167c010000000000000000000000000000000000000000000000000000000002815260040180828152602001915050600060405180830381600087803b15801561029d57600080fd5b505af11580156102b1573d6000803e3d6000fd5b505050506000809054906101000a900473ffffffffffffffffffffffffffffffffffffffff1673ffffffffffffffffffffffffffffffffffffffff16637221a26a826040518263ffffffff167c010000000000000000000000000000000000000000000000000000000002815260040180828152602001915050600060405180830381600087803b15801561034557600080fd5b505af1158015610359573d6000803e3d6000fd5b50505050505056fea165627a7a72305820055f38c70f68737b9bc5b00ef8a2c6fc91a0d111ed546d8baccd56f93bf887900029",
  "source": "pragma solidity >=0.5.0;\n\nimport \"./Background.sol\";\n\ncontract EntryPoint {\n    Background public background;\n\n    constructor(address _background) public{\n        background = Background(_background);\n    }\n\n    function storeTwoValues(uint first, uint second) public {\n        background.storeValue(first);\n        background.storeValue(second);\n    }\n\n    function getNumberOfValues() public view returns (uint) {\n        return background.getNumberOfValues();\n    }\n}",
  "sourcePath": "/Users/alexroan/Documents/Projects/Blockchain/DApps/truffle-tests/contracts/EntryPoint.sol",
  "compiler": {
    "name": "solc",
    "version": "0.5.0+commit.1d4f565a.Emscripten.clang"
  },
  "schemaVersion": "3.0.2",
  "updatedAt": "2020-03-21T15:31:06.368Z",
  "devdoc": {
    "methods": {}
  },
  "userdoc": {
    "methods": {}
  }
}