{
  "contractName": "EntryPoint",
  "abi": [
    {
      "constant": true,
      "inputs": [],
      "name": "backgroundAddress",
      "outputs": [
        {
          "name": "",
          "type": "address"
        }
      ],
      "payable": false,
      "stateMutability": "view",
      "type": "function",
      "signature": "0x79159485"
    },
    {
      "inputs": [
        {
          "name": "_background",
          "type": "address"
        }
      ],
      "payable": false,
      "stateMutability": "nonpayable",
      "type": "constructor",
      "signature": "constructor"
    },
    {
      "constant": true,
      "inputs": [],
      "name": "getBackgroundAddress",
      "outputs": [
        {
          "name": "",
          "type": "address"
        }
      ],
      "payable": false,
      "stateMutability": "view",
      "type": "function",
      "signature": "0x5b93e899"
    },
    {
      "constant": false,
      "inputs": [
        {
          "name": "first",
          "type": "uint256"
        },
        {
          "name": "second",
          "type": "uint256"
        }
      ],
      "name": "storeTwoValues",
      "outputs": [],
      "payable": false,
      "stateMutability": "nonpayable",
      "type": "function",
      "signature": "0xe812d6a5"
    },
    {
      "constant": true,
      "inputs": [],
      "name": "getNumberOfValues",
      "outputs": [
        {
          "name": "",
          "type": "uint256"
        }
      ],
      "payable": false,
      "stateMutability": "view",
      "type": "function",
      "signature": "0x4312aee1"
    }
  ],
  "bytecode": "0x608060405234801561001057600080fd5b506040516020806104a98339810180604052602081101561003057600080fd5b8101908080519060200190929190505050806000806101000a81548173ffffffffffffffffffffffffffffffffffffffff021916908373ffffffffffffffffffffffffffffffffffffffff16021790555050610418806100916000396000f3fe608060405260043610610062576000357c0100000000000000000000000000000000000000000000000000000000900463ffffffff1680634312aee1146100675780635b93e8991461009257806379159485146100e9578063e812d6a514610140575b600080fd5b34801561007357600080fd5b5061007c610185565b6040518082815260200191505060405180910390f35b34801561009e57600080fd5b506100a761024a565b604051808273ffffffffffffffffffffffffffffffffffffffff1673ffffffffffffffffffffffffffffffffffffffff16815260200191505060405180910390f35b3480156100f557600080fd5b506100fe610273565b604051808273ffffffffffffffffffffffffffffffffffffffff1673ffffffffffffffffffffffffffffffffffffffff16815260200191505060405180910390f35b34801561014c57600080fd5b506101836004803603604081101561016357600080fd5b810190808035906020019092919080359060200190929190505050610298565b005b60008060009054906101000a900473ffffffffffffffffffffffffffffffffffffffff1673ffffffffffffffffffffffffffffffffffffffff16634312aee16040518163ffffffff167c010000000000000000000000000000000000000000000000000000000002815260040160206040518083038186803b15801561020a57600080fd5b505afa15801561021e573d6000803e3d6000fd5b505050506040513d602081101561023457600080fd5b8101908080519060200190929190505050905090565b60008060009054906101000a900473ffffffffffffffffffffffffffffffffffffffff16905090565b6000809054906101000a900473ffffffffffffffffffffffffffffffffffffffff1681565b6000809054906101000a900473ffffffffffffffffffffffffffffffffffffffff1673ffffffffffffffffffffffffffffffffffffffff16637221a26a836040518263ffffffff167c010000000000000000000000000000000000000000000000000000000002815260040180828152602001915050600060405180830381600087803b15801561032857600080fd5b505af115801561033c573d6000803e3d6000fd5b505050506000809054906101000a900473ffffffffffffffffffffffffffffffffffffffff1673ffffffffffffffffffffffffffffffffffffffff16637221a26a826040518263ffffffff167c010000000000000000000000000000000000000000000000000000000002815260040180828152602001915050600060405180830381600087803b1580156103d057600080fd5b505af11580156103e4573d6000803e3d6000fd5b50505050505056fea165627a7a72305820094c1f49c067ff10b55c113cf30554ed40ea4eaf9db263840baabae599c61f250029",
  "source": "pragma solidity >=0.5.0;\n\nimport \"./Background.sol\";\n\ncontract EntryPoint {\n    address public backgroundAddress;\n\n    constructor(address _background) public{\n        backgroundAddress = _background;\n    }\n\n    function getBackgroundAddress() public view returns (address) {\n        return backgroundAddress;\n    }\n\n    function storeTwoValues(uint first, uint second) public {\n        Background(backgroundAddress).storeValue(first);\n        Background(backgroundAddress).storeValue(second);\n    }\n\n    function getNumberOfValues() public view returns (uint) {\n        return Background(backgroundAddress).getNumberOfValues();\n    }\n}",
  "sourcePath": "/Users/alexroan/Documents/Projects/Blockchain/DApps/truffle-tests/contracts/EntryPoint.sol",
  "compiler": {
    "name": "solc",
    "version": "0.5.0+commit.1d4f565a.Emscripten.clang"
  },
  "schemaVersion": "3.0.2",
  "updatedAt": "2020-03-21T16:20:50.771Z",
  "devdoc": {
    "methods": {}
  },
  "userdoc": {
    "methods": {}
  }
}